:020000040800F2
:100000006008002045020008552F00084D2F000809
:10001000512F000805130008F53500080000000006
:10002000000000000000000000000000C9300008CF
:100030000913000800000000592F0008CD30000807
:100040005F0200085F0200085F0200085F0200080C
:100050005F0200085F0200085F0200085F020008FC
:100060005F0200085F0200085F0200085F020008EC
:100070005F0200085F0200085F0200085F020008DC
:100080005F0200085F0200085F0200085F020008CC
:100090005F0200085F0200085F0200085F020008BC
:1000A0005F0200085F0200085F0200085F020008AC
:1000B0005F02000800000000000000005F0200086E
:1000C0005F02000800000000000000005F0200085E
:1000D000000000005F0200085F020008000000004E
:1000E0005F0200085F02000800000000000000003E
:1000F0000000000000000000000000000000000000
:100100000000000000000000000000005F02000886
:1001100000000000000000005F0200085F0200080D
:100120005F0200085F0200085F0200085F0200082B
:100130005F02000800000000000000000000000056
:100140005F0200085F0200085F0200085F0200080B
:100150005F0200085F0200085F0200085F020008FB
:100160005F0200085F0200085F0200080000000054
:100170005F0200085F0200080000000000000000AD
:100180005F0200085F0200085F02000800F002F84A
:1001900000F049F80AA090E8000C82448344AAF1D8
:1001A0000107DA4501D100F03EF8AFF2090EBAE8D6
:1001B0000F0013F0010F18BFFB1A43F0010318479B
:1001C000C0360000E0360000103A24BF78C878C17D
:1001D000FAD8520724BF30C830C144BF04680C604D
:1001E000704700000023002400250026103A28BF95
:1001F00078C1FBD8520728BF30C148BF0B60704799
:10020000642900F00B81002070471FB503F0F6FA57
:100210009DE8030000F016FD00F012FA1FBD10B5B6
:1002200000F077FA10BD00F0A7FA1146FFF7EDFFD6
:1002300003F0E2F900F0A2FC03B4FFF7F0FF03BC07
:1002400000F080FE0948804709480047FEE7FEE7C6
:10025000FEE7FEE7FEE7FEE7FEE7FEE7FEE7FEE776
:1002600004480549054A064B70470000D130000894
:100270008D0100086002002060080020600400205A
:100280006004002053EA020C00F069802DE9F04B75
:100290004FF00006002B1FBFB3FA83F503FA05F4F5
:1002A00024FA05F65E4012BF1643B2FA82F502FA4E
:1002B00005F4C5F120051EBF22FA05FC44EA0C0432
:1002C000203556EA044C4FEA144418BF641C4FF022
:1002D00000084FF00009904271EB030C39D300295C
:1002E00019BFB1FA81F701FA07F6B0FA80F700FA00
:1002F00007F6C7F120071EBF20FA07FC46EA0C06E6
:100300002037B6FBF4FCA7EB0507103F07F01F0BE7
:10031000CBF120062CFA06F60CFA0BFB44BFB346D1
:100320000026202FA4BF5E464FF0000B5BEA060CB0
:1003300008BF4FF0010B19EB0B0948EB0608ABFBAC
:10034000027C06FB02CC0BFB03CCC01B71EB0C0147
:10035000C1E70B46024641464846BDE8F08B13B55F
:10036000084318BF4FF0FF300146AFF30080BDE8EF
:100370001C4070470FB4044910B503AA029800F05E
:1003800049F910BC5DF814FB6C0000200FB41CB5DB
:10039000074B06AA7B4469460090059800F021F9B6
:1003A0000020694600F030F91CBC5DF814FB000029
:1003B000710200002DE9F0410E4604460020206243
:1003C0002046E168884730B3252805D0D4E90121CB
:1003D0009047206A401CF2E7E168204600278847E2
:1003E000050018D0A5F14100192802D820354FF496
:1003F00000673246294620462760FFF701FF40B1DB
:10040000012804D0F61D26F007060836D8E7361D69
:10041000D6E72846DAE7206ABDE8F0812DE9F04109
:100420000646002410687529314616A510D0AFF392
:100430000080002802DA404213A507E031688A07ED
:1004400001D512A502E0490704D511A5012401E058
:10045000AFF3008000210A2206F1240709E0B0FB77
:10046000F2FCB0FBF2F302FB1C003030785418466B
:10047000491C0028F3D123462A463046BDE8F04106
:1004800000F051B8000000002D0000002B0000001B
:100490002000000010B5431C02E010F8011B71B1F0
:1004A0008107FAD14FF0013202C88C1A8C4314EA4A
:1004B000C211F9D0C01A0A0603D0C01E10BDC01A5E
:1004C00010BD0A0401D0801E10BD0902FCD0401EE0
:1004D00010BD4FF0000200B51346944696462039F1
:1004E00022BFA0E80C50A0E80C50B1F12001BFF4ED
:1004F000F7AF090728BFA0E80C5048BF0CC05DF853
:1005000004EB890028BF40F8042B08BF704748BFA0
:1005100020F8022B11F0804F18BF00F8012B704714
:100520007047704770472DE9F0470D46994692464F
:10053000044600F124080168880604D5E06921F02A
:100540001001216000E00120A84201DD471B00E00E
:100550000027A1697A1902EB0900081AA061207826
:10056000C00602D42046AFF30080002608E0D4E99C
:1005700001211AF806009047206A401C761C206270
:100580004E45F4DB2078C0060AD52046AFF3008044
:1005900006E0D4E9012130209047206A401C206207
:1005A000381EA7F10107F4DC07E0D4E9012118F8AF
:1005B00005009047206A401C2062281EA5F1010515
:1005C000F3DC2046AFF300802078000602D502203D
:1005D000BDE8F0870120FBE701694A1C0261087849
:1005E000704700B58FB0CDE9013100210591054973
:1005F0007944CDE9031011466846FFF7DBFE0FB0E2
:1006000000BD0000E5FFFFFF0A6802F8010B0A6069
:1006100070470000074B70B50D467B44FFF7E1FFC4
:100620000446284600F008F810B14FF0FF3070BDC6
:10063000204670BDC3310000007B00F08000704791
:1006400010B542485421FFF744FF41485421FFF7B9
:1006500040FF40485421FFF73CFF3F493B483C4A9C
:100660003F4B08603D490A603A491960531C0365D5
:10067000481C1065012008653B48344A39A178447C
:1006800000F0DEF920B9384878440A3800F07FFAE3
:1006900037482F4A35A1784400F0D2F920B93448C0
:1006A00078440A3800F073FA32482A4A2FA1784475
:1006B00000F0C6F920B92F4878440A3800F067FAEC
:1006C00040232248DC000021224600F095F920B1A9
:1006D00025487844543800F05AFA1D4822464023F1
:1006E000002100F089F920B121487844543800F005
:1006F0004EFA184822461023002100F07DF9002808
:1007000006D01C487844BDE81040563800F03FBA87
:1007100010BD104870B5006D20F001040B4800F0CA
:1007200007FA0B4800F004FA0A4800F001FA09E061
:10073000206D20F00105204600F0FAF9204600F077
:1007400040F82C46002CF3D170BD000018000020AA
:100750006C000020C00000200000002004000020E9
:1007600008000020720000009431000077000000B3
:10077000803100006C310000754600F043FAAE464F
:1007800005006946534620F00700854618B020B59D
:10079000FFF766FDBDE820404FF000064FF0000770
:1007A0004FF000084FF0000BAC46ACE8C009ACE8D5
:1007B000C009ACE8C009ACE8C00921F007018D46CA
:1007C000704770B50446051F00F020FA0068002C41
:1007D00014BF446870BD002C18BFAC423CBF20461B
:1007E0006468F8D301680A18AA4218BF456003D1AB
:1007F0002A6805461144016028684119A1421CBFBE
:100800006C6070BD6168696021680844286070BDD3
:100810002DE9F05F054617460C46C86820F4201005
:1008200040F48000C860800602D5084600F047FB0F
:10083000E06841F282014FF0FF3A0140022903D003
:10084000204600F0D9FAB9E000F42041B1F5004F9C
:100850000FD1C00306D56168E06A884200D8084617
:10086000606006E02069E0626060606900F0C3F9E2
:10087000A061A0680022EEB200280DDAE1688B05C5
:100880000AD4C043A06041F490302260E060606808
:10089000411C61600670AAE0E0689146226040F465
:1008A0000050E060206978BB606900F096F904F1BF
:1008B00024054FF00108A8B1A08910F4407F08D0AA
:1008C000E06900F0EEF9206118B1E06840F40060E2
:1008D00017E0C4F81C802561E06820F4407040F403
:1008E00080600EE0E06900F0DCF900282061F0D0C3
:1008F000E06840F4006010F4407FE06002D140F412
:100900008070E06020696060E06825696FF0010B2D
:10091000C1051ED56168E06A884200D80846411BBF
:1009200004D02246284600F071FAE8BB1FB1E56208
:10093000C4E9015959E0681CE0626060E069401E4A
:10094000A060E06840F48030E06030462E7000F037
:1009500050B817B100F480320AE06068411C616051
:100960000670E0680A2E40F48030E06006D0002275
:10097000E16A6068814203D90B4602E00122F7E791
:100980000346B4F80CC05B1B5FEA4C5C04D4D4F89B
:100990001CC09C4500DD02B3814200D80146002BFB
:1009A000A1EB0008E56200E008E0C4E9015907DDB9
:1009B00022461946284600F029FA08B15046C6E7F3
:1009C000B8F1000F09D0A169E5626560A1EB0800EC
:1009D000A061E06840F01000E06047B16168A06984
:1009E000E562491B08446560A0615846AFE73046A0
:1009F000ADE730BCBDE8C09F70B5C468A50713D093
:100A0000650211D4B2F5807F09D0B2F5007F06D01F
:100A1000B2F5806F08D1012300F1240106E05D1ECC
:100A20006FF07F46B54201D3012070BD0161C36103
:100A3000416024F470611143C160002070BD00006A
:100A40002DE9F0410C461646070047D0104600F04D
:100A50006FF82078611C61280AD0722802D07728AC
:100A60003CD102E00125002405E00225042402E037
:100A7000082448F2020511F8010B2B2806D0622841
:100A800009D011F8010C74280AD00BE045F00305D9
:100A900044F00204EFE745F0040544F00104EAE7FE
:100AA00044F010043846214600F078F8411C15D077
:100AB0000021316171604FF40071F560F161706186
:100AC000200704D530460222002100F019F9306DCC
:100AD00040F0010030653046BDE8F0810020FBE7C2
:100AE0002DE9F0410D460646104C206DC10704D09B
:100AF000410804D020F00104F7E722460EE054201C
:100B000000F0CFF807000ED0206D47F00101084338
:100B1000542120653846FFF7DCFC3A46294630462A
:100B2000BDE8F0418CE70020D6E700001800002067
:100B30002DE9F04704464FF0FF380026C568D4E998
:100B40000497A80718D0204600F096F9384600F020
:100B50002FF8002800DA4646280502D54846FFF758
:100B600030FE4C212046FFF7B4FC206D20F0010040
:100B700020653046BDE8F0874046FBE710B50446E7
:100B8000AFF300802046BDE81040FFF755BB10B51D
:100B900000F0BEF9BDE8104000F0B5B90EB5CDE9E2
:100BA0000001FFF777FC029069460120ABBE0EBD45
:100BB00008B5694600900220ABBE08BD1FB58DE8A0
:100BC000070069460520ABBE04B010BD1FB58DE817
:100BD0000F0069460620ABBEF6E708B569460090EF
:100BE0000920ABBE08BD1CB5CDE9000169460A204D
:100BF000ABBE1CBD704708B5694600900C20ABBE6B
:100C000008BD0000004870471401002000487047EC
:100C10001C010020704770477047704738B5044684
:100C20000A4600206946AFF30080002808BF38BD9F
:100C300002460099204600F093F9012038BD0120BA
:100C400000F0E2B9F8B5AFF30080054600200C468D
:100C5000102000BF0646A819A0420DD932466946A9
:100C60000020AFF30080070008BF00F0CDF9009826
:100C7000A04218BF0546C419FFF7C8FF0560074624
:100C8000F01D20F007004619284600F062F9B44232
:100C900008BFF8BDA21B31463868BDE8F84000F037
:100CA0005FB970B50646FFF7B1FF056806F10B00A6
:100CB00020F00704B4429CBF002070BD2B466A6838
:100CC000BAB11068A04210D304F1080188423CBFB9
:100CD0005068586007D35168101941601168091BAA
:100CE000016058601460101D70BD13465268002AE0
:100CF000E7D121462846FFF791FF0028DED170BDDD
:100D00002DE9F041044616460D464769007B8007F1
:100D10002ED03846FFF761FF50BB3EB3012E02D004
:100D2000022E25D104E0204600F034F905441DE0F0
:100D30003846FFF760FFE168002841F01001E160EC
:100D400005DA204600F058F80120BDE8F081C9031B
:100D50000BD56268E16A914200D81146A26911443C
:100D60002269891A814200DD08460544002D01DA16
:100D70000220EAE7E16A6068E268814206D29103F4
:100D8000E06203D522F4003141F01002A669002789
:100D9000AE4213DCE16A814201D90B4600E0034612
:100DA00003EB060C2369ACEB030CAC4506DD81427A
:100DB00001D98C4600E084469C4505D1A760276098
:100DC00042F02000A5620DE0AD1BE669AE1B81423A
:100DD000A66000D90846C01A281A20605819606019
:100DE00022F0200003490840E060002084F84870A9
:100DF000ABE70000BFCFD7FFC16821F4001141F07D
:100E00008001C16000218160016070472DE9F74FCA
:100E100015460C464FF0FF3B3848D768D2F814A06F
:100E2000074209D05046A969FFF7DDFE002819DB0B
:100E30003248C0430740EF604FF000496FF0004870
:100E40004C4501D3464600E0264600993B465046B5
:100E50003246FFF7B3FEA96920F00042B21A1144EE
:100E6000A96128B12846FFF7C7FF584600F048B8E7
:100E7000A41BE5D10020F9E770B504460569C06AF6
:100E80006168884200D80846E16821F42011E160D9
:100E9000C90312D5A84208D02246411B2846FFF7B5
:100EA000B5FF10B14FF0FF3070BD0020E562C4E91E
:100EB0000150E06820F48030E060002070BD10B583
:100EC0000446C06820F02000E060A16AA069884262
:100ED0000DD02046FFF7D0FFE06820F4405040F0EE
:100EE0001000E060A06AA0612069E062606044F2E6
:100EF0004001E0688843E06010BD0000100002007F
:100F00001EBCBDE8E08F002801D000F01BB8704780
:100F100010B5014602A000F05EF8012010BD0000EF
:100F200053494752545245443A20526564697265A8
:100F300063743A2063616E2774206F70656E3A2087
:100F40000000000001491820ABBEFEE726000200A9
:100F5000704700210160C0E9011070471020704700
:100F6000034640688C46002818BF88423CBF0346B1
:100F70004068F8D318681844884207D00CF1030081
:100F800020F00700001D411A521A0146081D0A6090
:100F9000FFF717BC10B50146C268900703D0900652
:100FA00007D5886A0AE000F03DF801210160881E3B
:100FB00010BD8B69486818440B69C01A91F8483015
:100FC0001BB191F84910401A10BD1103FCD500283F
:100FD000FADD401E10BD70B505460C460A2000E043
:100FE0006D1C00F018F835B128780028F8D102E01F
:100FF000641C00F010F814B120780028F8D1BDE886
:1010000070400A2000F007B810B500F00FF8BDE8F6
:101010001040FFF778BF08B569468DF8000003203F
:10102000ABBE08BD004870471401002010B5012870
:1010300005D0002103A0FFF7CEFF012010BD09A1BC
:10104000F8E7000053494752544D454D3A204F753B
:1010500074206F662068656170206D656D6F7279B0
:10106000000000003A2048656170206D656D6F7268
:101070007920636F727275707465640070B5044690
:1010800000688268836802F0040203F00803D21843
:1010900000F0BA80C26892016ED5627E012A6BD1DF
:1010A000227E012A68D10168490661D40121CAF271
:1010B0004031026852065BD40268520658D4026876
:1010C00052065CBF02685FEA426251D4026852066F
:1010D0005CBF02685FEA42624AD4026852065CBFA3
:1010E00002685FEA426243D4026852065CBF02684B
:1010F0005FEA42623CD4026852065CBF02685FEA63
:10110000426235D4026852065CBF02685FEA4262FE
:101110002ED4026852065CBF02685FEA426227D49E
:10112000026852065CBF02685FEA426220D402682D
:1011300052065CBF02685FEA426219D40268520636
:101140005CBF02685FEA426212D4026852065CBF6A
:1011500002685FEA42620BD4026852065CBF026812
:101160005FEA426204D41B3944D002685206A0D51B
:1011700040210160012105E0022903D10221082656
:1011800012E000BF826852070AD58268920707D42E
:1011900082684FF6C073C7F6FF731A401032826040
:1011A00001294FF0040610D0826812070AD5826820
:1011B000920707D482684FF6C073C7F6FF731A40D0
:1011C00020328260032908BF0C2600F0B7FD216899
:1011D0008968314218D0054603E000BF806830427C
:1011E00012D000F0ABFD411B20680629F6D38168C0
:1011F0003142F3D0606D40F010006065A06D40F0AA
:101200000100A065012070BD002070BD70B582B0E6
:1012100004460020019021688A68D20711D14FF658
:10122000C076C7F6FF76886806F17F0210420BD0C1
:10123000606D40F010006065A06D40F00100A06599
:10124000012002B070BD00BF8868304040F001004E
:10125000886040F20830C5F204000068000221D422
:1012600000F06CFD21680A68D20717D1054602E03C
:101270000868C00712D18868C00704D18868304068
:1012800040F00100886000F059FD401B21680328F0
:10129000EED30868C007EBD1CAE700BF002002B058
:1012A00070BD00BF40F21400C2F20000006842F6B8
:1012B00063518009C0F23E51A0FB0101880900EB97
:1012C00040000C2101EB8000019001980028C7D05C
:1012D00001980138019001980028C1D00198013887
:1012E000019001980028BBD0019801380190019825
:1012F0000028B5D001980138019001980028E7D165
:10130000AEE70000FEE7000070470000EFF310803A
:1013100072B600BFFEE70000F0B581B00022009277
:1013200090F85020012A03D10221084601B0F0BDF7
:101330000123076880F85030BB685B0700F19C8090
:101340004B68052B07D8023B032B9ABFC9A454F85E
:10135000233006234B60C3F3012207EB82020C68A3
:10136000156B03F01F031F269E4025EA0606C4F3F3
:10137000846505FA03F333431363BA68BB6802F06C
:10138000040203F00803D21840F091800A688B68C9
:10139000C2F3406607EB86067569C2F30452072460
:1013A0009440A54303FA02F22A437261D1E9043C56
:1013B000FC68042B66D13A6E3A6E0B68C2F3846205
:1013C00093FAA3F6C3F3846C6FF3DF43B6FA86F5A2
:1013D000002B2C464FF6FF7E08BF6446A242C0F2A7
:1013E000070E0CD13A6E22F000423A660A6802EA11
:1013F0000E03C2F3846C92FAA2F2B2FA82F57A6E0C
:101400007A6E002BC2F384622C4608BF6446A24267
:101410000CD17A6E22F000427A660A6802EA0E0364
:10142000C2F3846C92FAA2F2B2FA82F5BA6EBA6E84
:10143000002BC2F384622C4608BF6446A2420CD142
:10144000BA6E22F00042BA660A6802EA0E03C2F3DC
:10145000846C92FAA2F2B2FA82F5FA6EFA6E002B5E
:10146000C2F3846208BF6546AA4220D1FA6E22F018
:101470000042FA661BE000BF416D41F0200141656A
:101480000121E8E006220E6807EB830302EA9402DA
:101490001D6E4FF200040CFA02F2C0F2FF3406F0A7
:1014A000F846254032432A4342F000421A66BA68A1
:1014B000D20750D10C68CA68D7F8B06023466FF3E2
:1014C000DF4326EA030C4FF6FF7602F01805C0F260
:1014D0000706EE4000252640C4F27F0546EA0C06CA
:1014E000AA42C7F8B06036D193B194FAA4F2B2FA26
:1014F00082F2013202F01E03092B02F01F0310D802
:1015000001229A4003EB430342EA035315E000BF74
:10151000012202EB946202F01E030A2B02F01F0369
:10152000EED3012200269A4003EB4303CFF6206658
:1015300006EB03531A4342F00073C3F3406607EB14
:1015400086068A687569C3F3045307249C40A54343
:101550009A402A43726109680022C8F208021142C7
:101560002CD040F20833C5F204031C680022CCF2F0
:101570005272914204F0E07C08BF14F400021FD0C4
:101580000022CCF68432914208BF14F080721DD044
:101590000122C8F2000291424FF0000108BF14F48A
:1015A000800258D1A3F54272974254D1196821F0B4
:1015B000E07141EA0C0141F480014AE000214AE077
:1015C000A3F542718F4207D0002144E0A3F5427198
:1015D0008F4237D000213EE0196842F6635221F075
:1015E000E07141EA0C0141F40001196040F214017C
:1015F000C2F200010968C0F23E528909A1FB021241
:10160000910901EB41010C2202EB8101009100994B
:1016100041B3009901390091009929B3009901392A
:101620000091009911B30099013900910099F9B125
:10163000009901390091009900294FF00001E8D18B
:1016400009E000BF196821F0E07141EA0C0141F0A6
:10165000807119600021002280F85020084601B0F6
:10166000F0BD00BF0021F6E70021F4E70021F2E71A
:101670000021F0E70C00000012000000180000003C
:10168000000100000068006C70470000B0B582B037
:101690000446002001904CB1606D58B12168886803
:1016A000800012D48868C00019D54CE0012002B037
:1016B000B0BD00BF204600F0E9F80020A06584F826
:1016C0005000216888688000ECD588684FF6C072A9
:1016D000C5F6FF72104088608868C00033D44FF6AA
:1016E000C0728868C5F6FF7202F18052104000F1A6
:1016F0008050886040F21400C2F20000006842F698
:1017000063528009C0F23E52A0FB020290090222FD
:1017100002EB400001900198A8B100BF0198013888
:101720000190019878B1019801380190019850B169
:10173000019801380190019828B101980138019071
:1017400001980028EAD18868C00009D4606D40F093
:1017500010006065A06D40F00100A065012000E070
:1017600000208A68636D02F0040203F01003D218AF
:10177000626D71D122F48172023262658A68D20789
:1017800012D140F208324FF60053C5F20402CFF6F0
:10179000FF73D358DB0707D1D4F804C0136823F4D0
:1017A0007C1343EA0C031360627E636B43EA4232AC
:1017B000D4E902C31A4394F8203042EA0C02012B08
:1017C00042EA034207D1D4F824C00023CFF6FE73C7
:1017D00003EB4C431A43A36A33B1D4F82CC003F48F
:1017E000707343EA0C031A43D1F80CC04CF20703A0
:1017F000CFF6F07303EA0C031A43CA608A688B6859
:1018000002F0040203F00803D2182ED194F830300D
:10181000227E5B0094F838C043EA823ECB6844F2F3
:10182000020223EA020242EA0E02CA600A69BCF11D
:10183000010F17D140F2FD7322EA030CD4E90F32F5
:10184000D4E911E543EA0C031A4342EA0E022A43A3
:1018500042F0010208E000BF42F010010120616582
:1018600002B0B0BD22F001020A6122690B6B012AAD
:1018700023F00F0202D1E369013B1A430A63616D51
:10188000012262F30101616502B0B0BD10B59CB0E8
:1018900004460020CDE91A0002A820303421FEF7CA
:1018A00018FE20680021C5F20401884202D01CB055
:1018B00010BD00BF4FF4804002904FF08050149054
:1018C00008200590072006900220CDE907004FF080
:1018D00080700124099002A8CDE9034400F01CFBAC
:1018E000002818BFFFF712FD41F24C00C4F20200BD
:1018F000016841F400510160016801F40051019157
:101900000199016841F001010160006817A900F028
:101910000100019001980B201890002019904FF0C1
:101920009040179400F02AF91CB010BD2DE9F04149
:10193000D0F814800446B8F1080F0D4602D10827EC
:1019400005E000BF2068C068C00763D1042700F02D
:10195000F5F921680A683A422AD0606D40F40070B7
:101960006065C86810F4406F0FD1607E68B9086880
:1019700000070AD5606D20F480706065606DC0045A
:1019800003D4606D40F001006065C868B8F1080FCD
:1019900004D1082008600020BDE8F081400444BF65
:1019A0000020BDE8F0810C2008600020BDE8F08137
:1019B0000646681C29D065B900F0C0F9216808689E
:1019C00038420FD008683842F6D0C6E70868384277
:1019D000C3D100F0B3F9801B2168A842F6D908688A
:1019E0003842F3D1606D40F004006065002084F857
:1019F00050000320BDE8F08108683842ADD1086886
:101A00003842AAD108683842A7D108683842F3D0D2
:101A1000A3E700BF606D40F0200060650120BDE8D5
:101A2000F081000010B5044600688068400703D4C8
:101A300094F85000012801D1022010BD012084F843
:101A400050002046FFF7E2FB20B1002184F850103F
:101A500010BD00BF606D40F60171884300F58070D5
:101A60006065606D0021C0044FF0000044BFA06DB0
:101A700020F00600A06520681C22026084F8501047
:101A8000C168890104D5616D012262F30D31616580
:101A900081684FF6C072C7F6FF7211400431816051
:101AA000002010BDB0B5044690F85000012804BFD6
:101AB0000220B0BD012084F8500020460321FFF72A
:101AC000DDFA18B1002184F85010B0BD206881689B
:101AD0008268D20717D011F0020114D1816801F099
:101AE0000D01012926D181684FF6C072C7F6FF7239
:101AF0001140023181600321016000F01FF921686B
:101B00008968C90708D1214651F8540F41F20112E2
:101B100020EA0202002015E0054602E08068C007C6
:101B2000F1D000F00BF9411B20680329F6D381683E
:101B3000C907F3D0606D214640F01000606551F890
:101B4000582F012042F001020A60002184F8501051
:101B5000B0BD0000B0B5044600F0F0F8054640F214
:101B60000C00C2F200000078611C18BF044400BFE2
:101B700000F0E4F8401BA042FAD3B0BD2DE9F04FCD
:101B800082B00D68002D00F0CD8040F2004E40F68E
:101B90000002C4F2010EC4F600020723002401264D
:101BA0004FF0000C0027904208BF022300934CE046
:101BB00040F20042C4F60002DDF800A0904208BFE7
:101BC0004FF0010A0CF00C030F259D4029EA050592
:101BD0000AFA03F3BA082B434BF82230DEF8082048
:101BE0004B6842EA080540F20C49DE0258BF22EA7F
:101BF0000805CEF80850C4F20109D9F800209E0269
:101C000042EA080558BF22EA0805C9F80050DEF884
:101C100004209E0342EA080558BF22EA0805CEF8D0
:101C20000450DEF80020012642EA0805DB0358BF15
:101C300022EA0805CEF800500D68013735FA07F2A0
:101C40000CF1040C04F102046CD006FA07F215EA58
:101C50000208F1D0D1F804A003250AF0030BABF180
:101C60000103A540012B6FEA05090FD88368CD68F1
:101C700003EA0903A5402B438360436823EA020279
:101C8000CAF30013BB401A43426005E0BBF1030FE7
:101C900002D14FF0030B20E0C2688B6802EA090210
:101CA000A3401A43BBF1020FC26016D16FF00302CA
:101CB00002EA570202440CF01C050F23D2F820A0C0
:101CC00003FA05FB0B692AEA0B0AAB4043EA0A0355
:101CD0001362D1F804A00AF0030B02680BFA04F3B4
:101CE00002EA09021A431AF4403F0260A4D041F20A
:101CF0006003C4F202031A68AEF57E7B42F0010273
:101D00001A601A68B0F1904F02F001020192019A34
:101D100027F003025BF802907FF44AAF4FF0000A0D
:101D200050E700BF02B000F000B830BCBDE8C08F83
:101D30001823002A08BF2823C150704740F25C20B6
:101D4000C2F200000068704740F20C0040F25C21D3
:101D5000C2F20000C2F2000100780A681044086074
:101D60007047000080B5032000F078F80F2000F0E5
:101D700009F800281CBF012080BD00F029F80020D0
:101D800080BD000070B540F20C06C2F2000631784A
:101D9000E1B1044640F21400C2F200004FF47A723E
:101DA0000068B2FBF1F1B0FBF1F000F0ABFF0F2CDB
:101DB0004FF0010508D838B94FF0FF302146002216
:101DC000002500F01FF87460284670BD012070BD2A
:101DD00082B041F25800C4F20200816841F0010172
:101DE0008160816801F0010101910199016841F070
:101DF00080510160006800F080500090009802B0AF
:101E00007047000010B54EF60C5CCEF2000CDCF80A
:101E10000030C3F3022E8EF00704042C28BF0424E4
:101E2000BEF103034FF0FF3E0EFA04F438BF002367
:101E3000A14399400EFA03F39A43114300F00F02B5
:101E400000F160430901043A03F564436244002849
:101E500048BF02F10C03197010BD00004EF60C5182
:101E6000CEF200010A684FF6FF031A4060F30A221F
:101E700042F0806040F0FD700860704747F200015A
:101E8000C4F200010A68B0F5007F02F4C06031D1ED
:101E9000B0F5007F2CD00868012262F34A20086068
:101EA00040F21400C2F200000068322250434DF6A6
:101EB0008362C4F21B32A0FB0202900C4A695205F5
:101EC00011D5421C0FD04A6952050CD558B14A6948
:101ED000520508D5012806D04A69520503D50228C3
:101EE000A0F10400EAD14869400544BF03207047CF
:101EF00000207047B0F5806FFAD00868022262F3C4
:101F00004A2008600020704747F20000C4F2000039
:101F1000006800F4C06070472DE9F04381B00446CA
:101F2000407841F288070007C4F202071ED5E06B33
:101F300080B1B0F5400F14D0B0F5000F40F014811F
:101F400057F87C0C40F4803047F87C0C4FF40000CC
:101F500007E000BF201D002101F000F8814638B9DC
:101F6000E06B396821F44001084338604FF0000904
:101F7000A078800752D557F8300C10F080580BD15C
:101F800057F8300C40F0805047F8300C57F8300CC0
:101F900000F080500090009847F20005C4F2000560
:101FA000286840F480702860FFF7C8FE064600BF2E
:101FB0002868C00508D4FFF7C1FE801B0228F7D9A6
:101FC0004FF0030921E000BFB9F1000F1DD1B8683F
:101FD00010F4407011D0216D88420BD0B868B968F8
:101FE00020F4407041F48031B960B96821F4803147
:101FF000B960B860C00740F0BF80B868216D20F4B8
:10200000407008434FF00009B860B8F1000F05D1E7
:1020100057F8300C20F0805047F8300C2168C80782
:102020000ED1880714D488061AD4880520D4480510
:1020300026D448062CD4C80532D4880438D449E0C4
:102040003868226A20F00300104338608807EAD518
:102050003868626A20F00C00104338608806E4D5C6
:102060003868A26A20F44060104338608805DED5E5
:102070003868626B20F44020104338604805D8D59A
:102080003868A26B20F44010104338604806D2D55F
:102090003868E26A20F4405010433860C805CCD557
:1020A0003868226B20F4403010433860880411D522
:1020B0003A68206C22F040620243B0F1806F3A60CF
:1020C0001ED0B0F1006F05D157F87C0C40F48010A1
:1020D00047F87C0C480327D53A68606C22F04062D0
:1020E0000243B0F1806F3A6016D0B0F1006F1BD19F
:1020F00057F87C0C40F4801047F87C0C14E000BFCB
:10210000201D012100F02AFF2168002818BF814608
:102110004803E1D408E000BF201D012100F01EFFAC
:102120002168002818BF8146480410D53868A26C81
:1021300020F040501043B2F1805F386007D1201D7D
:10214000022100F00BFF2168002818BF8146080417
:1021500005D53868E16C20F0804008433860484677
:1021600001B0BDE8F08300BF4FF00109A0788007FF
:102170003FF501AF52E700BFFFF7E0FD064641F231
:1021800088354FF0030900BFB86880073FF535AFC9
:10219000FFF7D4FD801BA842F6D936E72DE9F043BE
:1021A00081B000286BD042F20008C4F20208044655
:1021B000D8F800000D4600F0070088420CD2D8F88D
:1021C000000020F007002843C8F80000D8F80000FD
:1021D00000F00700A84252D1206841F2080910F02F
:1021E0000201C4F202090DD0A268D9F8003003F050
:1021F000F0039A4206D9D9F8003023F0F0031A43CD
:10220000C9F80020C2072DD169B1A168D9F8002012
:1022100002F0F002914206D2D9F8002022F0F0023A
:102220001143C9F80010D8F8001001F00701A942C5
:102230000CD9D8F8001021F007012943C8F8001084
:10224000D8F8001001F00701A94218D141071BD4AA
:10225000000723D4D9F80000D9F8041010F00C00BE
:102260002CD131E0606800285ED0022800F07E802A
:10227000032840F0818059F8081C890158D40120B6
:1022800001B0BDE8F08300BFD9F80010E26821F486
:10229000E0611143C9F800100007DBD5D9F8000050
:1022A000216920F4605040EAC100C9F80000D9F863
:1022B0000000D9F8041010F00C0005D00C2829D12A
:1022C00001F00301012925D159F8081C090703D49D
:1022D000D9F88C10090A02E059F8081C090943F6DC
:1022E0003C0201F00F01C0F6000252F82110002854
:1022F0000A4618BF00220C2871D1D9F8040000F05A
:102300000300022846D0032804BF41F20021C0F296
:102310007A0143E0042857D008285BD141F200221B
:10232000C0F27A025BE000BF59F8081C8907A6D505
:10233000D9F8001021F003010843C9F80000FFF7A5
:10234000FDFC064641F28837D9F80000616800F0CC
:102350000C00B0EB810F15D0FFF7F0FC801BB842EA
:10236000F2D9032001B0BDE8F08300BF59F8081C82
:1023700089037FF584AFDBE759F8081C49057FF531
:102380007EAFD5E7206800F0020100297FF43DAF61
:1023900049E700BF42F20041C0F2F401D9F804005D
:1023A000D9F80420C0F30210C2F306225143D9F831
:1023B00004200130B1FBF0F0C2F34161022202EBD4
:1023C0004101B0FBF1F20AE042F20042C0F2F40235
:1023D00005E000BF002200210C283FF48EAFD9F8A1
:1023E000000043F62201C0F30310C0F60001085CB0
:1023F00000F01F0022FA00F140F21000C2F20000CB
:1024000040F214020068C2F20002116001B0BDE89F
:10241000F043FFF7B7BC000040F2140041F208019E
:10242000C2F20000C4F202010068096843F63202F9
:10243000C1F30221C0F60002515C01F01F01C84047
:102440007047000040F2140041F20801C2F200009F
:10245000C4F202010068096843F63202C1F3C221E6
:10246000C0F60002515C01F01F01C8407047000037
:1024700041F20C01C4F2020151F8040C10F00C02FC
:10248000086805D00C2A29D100F00300012825D1C5
:1024900051F80C0C000703D4D1F88800000A02E0C0
:1024A00051F80C0C000943F63C0300F00F00C0F695
:1024B000000353F82030002A184618BF00200C2AC9
:1024C00018BF7047086800F00300022810D00328E6
:1024D00004BF41F20023C0F27A030DE0042A1FD0AA
:1024E000082A23D141F20020C0F27A00704700BFD1
:1024F00042F20043C0F2F40308680A68C0F3021015
:10250000C2F30622096801305A43B2FBF0F0C1F36E
:102510004161022202EB4101B0FBF1F0704700BFC4
:1025200042F20040C0F2F400704700BF00200023D8
:10253000C5E700002DE9F04383B0002800F03883A0
:1025400041F200060446C4F20206B068F16822783F
:1025500000F00C09D00601F003081DD42078C00754
:1025600000F08180B9F1080F76D0B9F10C0F08BFE7
:10257000B8F1030F70D06068B0F5803F07D0B0F5B8
:10258000A02F40F04B82306840F4802030603068EB
:1025900040F4803030604CE2B9F1000F1ED0B9F148
:1025A0000C0F08BFB8F1010F18D0A16930680029DD
:1025B00000F0968140F001003060FFF7BFFB054658
:1025C0003068800700F19E81FFF7B8FB401B0228AE
:1025D0004FF00300F4D903B0BDE8F0833068800702
:1025E00003D5A069002800F0E382256A306800075F
:1025F00000F13E81D6F89400000900F0F000854219
:1026000000F23C813068B9F1000F40F00800306002
:10261000306820F0F00040EA050030607068E16941
:1026200020F47F4040EA0120706040F0AF82B06D3E
:10263000C00000F14B82B06D40F08050B065B06DCD
:1026400000F0805002900298FFF75EFCB16D21F01F
:102650008051B1653CE200BF3068800303D56068FB
:10266000002800F0A582207880072DD5B9F1040F4D
:102670001CD0B9F10C0F08BFB8F1020F16D0E168F9
:102680003068002900F0E48140F480703060FFF78A
:1026900055FB0546306840050FD4FFF74FFB401B44
:1026A00002284FF00300F5D995E700BF30684005D8
:1026B00003D5E068002800F07B827068216920F073
:1026C000F85040EA016070602078000760D42078FC
:1026D000400775D42078800600F1AE80A06A0028FB
:1026E00000F00C83022840F01F81F068E16A00F0DE
:1026F00003028A4240F03081226B6FF00F0300F03A
:10270000700103EB0212914240F02681616B00F4EC
:10271000FE42B2EB012F40F01F81A16B00F0784226
:10272000B2EBC16F40F01881E26B0023CFF6E0738B
:1027300003EA025200F4C001A2F50012914240F0F7
:102740000B81216C4FF07E4202EA016100F0C06013
:1027500001F17E41884240F0FF803068800100F145
:10276000CD82306840F080703060F06840F080705A
:10277000F060FFF7E3FA04463068800100F1BE82A2
:10278000FFF7DCFA001B02284FF00300F4D922E720
:102790006169D6F89400002900F08C8040F00100B7
:1027A000C6F89400FFF7CAFA054600BFD6F89400B1
:1027B00080078CD4FFF7C2FA401B0228F6D929E122
:1027C000B06D10F0805808D1B06D40F08050B06509
:1027D000B06D00F080500090009847F20007C4F2FE
:1027E00000073868C00513D4386840F4807038603A
:1027F000FFF7A4FA054600BF3868C00508D4FFF704
:102800009DFA401B02284FF00300F5D9E3E600BF14
:10281000A068012808D0052840F0DE80D6F8900096
:1028200040F00400C6F89000D6F8900040F0010097
:10283000C6F89000DFE000BF616AD6F89800002972
:1028400000F0B48040F00100C6F89800FFF776FA77
:10285000054600BFD6F8980080073FF53FAFFFF769
:102860006DFA401B02284FF00300F3D9B3E600BF16
:10287000306800F0F00085427FF6C4AEB06DC00055
:1028800000F18680B06D40F08050B065B06D00F012
:10289000805001900198FFF737FBB16D21F0805116
:1028A000B165B0F5007F79D0802D40F2E380032040
:1028B000EBE000BF20F00100C6F89400FFF73EFAFD
:1028C000054600BFD6F8940080077FF500AFFFF7FC
:1028D00035FA401B02284FF00300F3D97BE600BF16
:1028E00020F001003060FFF729FA054630688007C4
:1028F0007FF534AEFFF722FA401B02284FF00300A9
:10290000F4D968E6306840F0080030603068D4E9F7
:10291000072120F0F00008433060706820F47F4009
:1029200040EA0220706019E6B9F10C0F00F0408116
:10293000306820F080703060FFF700FA044600BF76
:102940003068800140F1EE80FFF7F8F9001B0228A3
:102950004FF00300F4D93EE6B9F10C0F00F02881E6
:102960003068400100F12481306820F080703060D0
:10297000FFF7E4F905463068800140F18181FFF7F7
:10298000DDF9401B02284FF00300F4D923E600BF15
:10299000FFF7BAFAB0F5007F7FF486AF812D73D3CD
:1029A0000120A02D88BF02206FE000BF20F00100B1
:1029B000C6F89800FFF7C2F9054600BFD6F89800A0
:1029C00080077FF58BAEFFF7B9F9401B02284FF067
:1029D0000300F3D9FFE500BFD6F89010002821F0DE
:1029E0000101C6F89010D6F8901021F00401C6F845
:1029F000901000F07B80FFF7A1F9054641F288377F
:102A0000D6F89000800700F18380FFF797F9401B0C
:102A1000B842F5D9032003B0BDE8F083316800283F
:102A200021F480313160316821F48021316000F07F
:102A30008580FFF783F90546306880033FF513AEC4
:102A4000FFF77CF9401B64284FF00300F4D9C2E57E
:102A500020F480703060FFF771F90546306840055A
:102A60007FF532AEFFF76AF9401B02284FF00300F2
:102A7000F4D9B0E5A5F17000B0FA80F04009802DDE
:102A800008BF022001E000BF002042F20001C4F2B2
:102A900002010A6822F0070202440A60096801F094
:102AA0000701814240F08480306840F008003060C7
:102AB0003068D4E9072120F0F000084330607068E6
:102AC00020F47F4040EA022070605FE0FFF71CFACC
:102AD000B0F5007F06D1812D40D30120A02D88BF05
:102AE000022045E0802D3BD9032041E0FFF726F985
:102AF000054641F28837D6F89000800708D5FFF7E1
:102B00001DF9401BB8424FF00300F4D963E500BF44
:102B1000B8F1000F7FF4DEADB06D20F08050B065ED
:102B2000D8E500BFF0684FF6FC71CFF6EE610840C3
:102B3000F060002003B0BDE8F08300BFFFF7FEF8AF
:102B40000546306880037FF58EADFFF7F7F8401B30
:102B500064284FF00300F4D93DE500BF002007E0F2
:102B6000A5F17000B0FA80F04009802D08BF022066
:102B700042F20001C4F202010A6822F00702024494
:102B80000A60096801F00701814211D1B068F1685B
:102B900010F00C0005D00C282AD101F00301012906
:102BA00026D13168090707D4D6F89410090A05E040
:102BB000012003B0BDE8F0833168090943F63C0207
:102BC00001F00F01C0F6000252F8211000280A4659
:102BD00018BF00220C2837D1F06800F0030002284B
:102BE00010D0032804BF41F20021C0F27A010DE0A9
:102BF00004281FD0082823D141F20022C0F27A0213
:102C000022E000BF42F20041C0F2F401F068F26835
:102C1000C0F30210C2F306225143F2680130B1FB47
:102C2000F0F0C2F34161022202EB4101B0FBF1F28C
:102C30000AE000BF42F20042C0F2F40204E000BF2A
:102C4000002200210C28C7D0B06843F62201C0F34F
:102C50000310C0F60001085C00F01F0022FA00F12A
:102C600040F21000C2F2000040F214020068C2F20A
:102C700000021160FFF786F800287FF4ACAC6DE429
:102C8000F06848F28C01C0F29D1104F12C0700EAB3
:102C9000010C8ECF6FF00F00D4E90F5400EB02103F
:102CA0000022CFF6E07241EA0C0102EA0552084325
:102CB000A2F500124FF07E4540EA032005EA0465C4
:102CC000104305F17E4540EAC7602843F060306854
:102CD00040F080703060F06840F08070F060FFF786
:102CE0002DF804463068800108D4FFF727F8001B50
:102CF00002284FF00300F5D96DE400BF002003B0B7
:102D0000BDE8F083411E0020B0EB116F1CBF012015
:102D100070474EF21002CEF2000251604EF623517F
:102D2000CEF20001F0230B70072190601160704714
:102D3000B0B582B0A0B10446806F28B9002084F8F5
:102D40007400204600F056F82420A067206801682F
:102D500021F001010160204600F038FA012803D17A
:102D6000012002B0B0BD00BF606A10B1204600F083
:102D7000B9F92068416821F490414160816821F0EF
:102D80002A018160016841F0010101600020C4F85E
:102D90008000FEF7D3FF216805460A6812070CD5AC
:102DA0006FF07E4C20464FF4001100222B46CDF8E8
:102DB00000C000F017FB78B92168086840070FD5FC
:102DC0006FF07E4C20464FF4800100222B46CDF858
:102DD00000C000F007FB18B1032002B0B0BD00BF77
:102DE0002020A067E0670020206684F8740002B00D
:102DF000B0BD000010B59AB00446684604305021BA
:102E0000FDF767FB206844F20041C4F200018842EC
:102E100002D01AB010BD00BF022468460094FFF72C
:102E20007BF8002818BFFEF771FA41F24C00C4F29B
:102E30000200C16841F40031C160C16801F4003191
:102E400015911599016841F001010160006815A90B
:102E500000F00100159015980C20CDE91504002014
:102E6000179003201890072019904FF09040FEF71C
:102E700085FE1AB010BD00002DE9F04182B0044675
:102E8000806F20280BD10D4600294FF001005AD049
:102E90001746002A57D094F87400012804D1022064
:102EA00002B0BDE8F08100BF012084F8740000206A
:102EB000C4F8800021209846A067FEF73FFFA4F8E1
:102EC0005070A4F85270A1680746B1F5805F01D137
:102ED000206918B12E46002501E000BF0026002021
:102EE00084F874000BE000BF35F8021B00266FF376
:102EF0005F210185B4F852000138A4F85200B4F8FB
:102F0000520078B12046802100223B46CDF8008057
:102F100000F068FA78B92068002EE5D016F8011B99
:102F2000E7E700BF2046402100223B46CDF8008065
:102F300000F058FA20B1032002B0BDE8F08100BFD4
:102F40002020A067002002B0BDE8F081FEE700006D
:102F5000FEE70000FEE7000070470000F0B581B01A
:102F600041F20007C4F20207FA680D4691070446D1
:102F700014D0F868216800F0030088424FF0010087
:102F800040F09F80002900F09C80F8686168C0F3E1
:102F900002100130884232D134E000BF206803289B
:102FA0000CD0022816D0012829D13968012211F04D
:102FB000020182EA510116D120E000BF396889037D
:102FC00010D43968012211F4802182EA91410AD19A
:102FD00014E000BF3968012211F4806182EA912176
:102FE00001D10BE00021FA6863686FF00F0622F050
:102FF000730206EB03131A431043F86011B101206A
:1030000001B0F0BD386820F080603860FEF796FEB1
:10301000064600BF3868000106D5FEF78FFE801B0C
:103020000228F7D944E000BF012D0DD0F5B9386969
:1030300048F2FF01C0F2FF710840D4E9021240EAF1
:10304000012040EAC26022E048F2FF013869CFF671
:10305000FF112269002301F1B461CFF6E07308404B
:10306000A16803EA0252A2F500120DE0386948F2A5
:10307000FF016269CFF6FF114FF07E430840A1685F
:1030800003EA026202F17E4240EA01201043386105
:10309000386840F080603860FEF750FE054600BF9B
:1030A0003868000108D4FEF749FE401B0228F7D912
:1030B000032001B0F0BD00BFA06939690843386141
:1030C000002001B0F0BD000070470000FEF73CBEDC
:1030D0004EF68850CEF20000016841F470010160A4
:1030E0007047000080B5416ACA070DD18A0716D41F
:1030F0004A071FD40A0728D4CA0631D48A063AD40C
:103100004A0658D542E000BF0268D0F828C053688C
:1031100023F4003343EA0C0353608A07E8D50268BE
:10312000D0F82CC0536823F4803343EA0C03536077
:103130004A07DFD50268D0F830C0536823F48023F3
:1031400043EA0C0353600A07D6D50268D0F834C0AE
:10315000536823F4004343EA0C035360CA06CDD5F9
:103160000268D0F838C0936823F4805343EA0C0314
:1031700093608A06C4D50268D0F83CC0936823F4F3
:10318000005343EA0C0393604A0614D50268D0F852
:1031900040C05368BCF5801F23F4801343EA0C033E
:1031A000536008D1D2F804C0D0F844E02CF4C00336
:1031B00043EA0E035360090658BF80BD0168806C66
:1031C0004A6822F400221043486080BDB0B505462D
:1031D00005F108041ECC0068194341EA0403D5F840
:1031E0001CE0046846F6F311CEF6FF712140194346
:1031F00041EA0E010160416848F2000C21F440519F
:1032000011434160AA69C4F2000C60451CBF296AE1
:103210000A43816821F43061114344F20042C4F250
:103220000002904281600FD0604515D043F6000146
:10323000C4F2010188424BD141F28801C4F202017B
:103240000B6864A212E000BF41F28801C4F20201DF
:1032500009688B0806E000BF41F28801C4F2020150
:1032600009688B0A43F66C02C0F6000203F0030102
:1032700052F82130604542F20040C0F2F4002ED0F6
:10328000BEF5004F12D1082B4FF0010100F29D80D6
:10329000DFE803F0065C689B609B9B9B660000BFB9
:1032A000FFF7BAF8002840F05D8056E0082B4FF099
:1032B000010100F28A80DFE803F0056B77886F88F0
:1032C00088887500FFF7A8F8002840F06D8066E058
:1032D0001023604542F20040C0F2F400D0D1082B28
:1032E0004FF0010100F27180DFE803F0066F126F0A
:1032F0000A6F6F6F100000BFFFF78EF840B902E051
:10330000FFF7B6F820B900215FE000BF4FF400409E
:103310006A6802EB420188424FF0010155D3130362
:10332000984252D8010E000210EB520041F1000108
:103330000023FCF7A7FF4FF60052A0F54071C0F242
:103340000F0291423BD301213FE000BFFFF77AF823
:1033500040B902E0FFF78CF820B9002135E000BF4A
:103360004FF4004069684A0802EB4000B0FBF1F0FE
:103370004FF6EF72A0F11001914207D84FF6F071AD
:103380000140C0F34200084419E000BF01211CE0E5
:10339000FFF758F840B902E0FFF76AF820B90021BA
:1033A00013E000BF4FF4004069684FF6EF7200EB86
:1033B0005100B0FBF1F0A0F11001914204D829684E
:1033C000C860002101E000BF0121002208466A66B2
:1033D000AA66B0BD01000000040000000200000069
:1033E000080000002DE9F041044600681546C26956
:1033F0000E461140891BB1FA81F14909A94240F0FA
:10340000A080DDF81880B8F1000F29D018F1010173
:1034100040F08080C1693140891BB1FA81F14909CE
:10342000A94240F08E80C1693140891BB1FA81F117
:103430004909A94240F08580C1693140891BB1FA30
:1034400081F14909A9427CD1C1693140891BB1FA96
:1034500081F14909A942DDD00020BDE8F08100BF1B
:10346000FEF76CFC206850E8000F216820F4D07053
:1034700041E80002BAB3206850E8000F216820F448
:10348000D07041E8000272B3206850E8000F216854
:1034900020F4D07041E800022AB3206850E8000F01
:1034A000216820F4D07041E80002002ADAD11AE045
:1034B000206850E8020F216820F0010041E8020274
:1034C000DAB1206850E8020F216820F0010041E8DD
:1034D000020292B1206850E8020F216820F001003A
:1034E00041E802024AB1206850E8020F216820F04A
:1034F000010041E80202002ADAD12020A06704F18D
:103500007C0020210160002084F874000320BDE8C5
:10351000F08100BF1F4600BFFEF710FCC01B4045F6
:10352000A0D820680168490744BFC1695FEA01511A
:103530000AD4C0693040801BB0FA80F04009A8422C
:10354000EAD00020BDE8F0814FF40061016200BFC5
:10355000206850E8000F216820F4D07041E8000294
:10356000BAB3206850E8000F216820F4D07041E819
:10357000000272B3206850E8000F216820F4D07078
:1035800041E800022AB3206850E8000F216820F4C7
:10359000D07041E80002002ADAD11AE0206850E831
:1035A000020F216820F0010041E80202DAB1206830
:1035B00050E8020F216820F0010041E8020292B1B8
:1035C000206850E8020F216820F0010041E8020263
:1035D0004AB1206850E8020F216820F0010041E85C
:1035E0000202002ADAD12020A067E06704F18000FF
:1035F00087E70000FEE7000096B0FEF7B3FB05A8E2
:1036000004304021FCF765FF4FF40070FEF736FCF4
:1036100020B1EFF3108072B6FEE700BF10200590D6
:1036200001200B90702000240D9005A80C940F949D
:10363000FEF780FF20B1EFF3108072B6FEE700BF07
:103640000F20CDE9000468460021CDE9024404942E
:10365000FEF7A4FD20B1EFF3108072B6FEE700BFC5
:10366000002441F24C000994C4F2020001680022D7
:1036700041F00101016001684FF4806501F0010132
:1036800000910099016841F00201016000684FF467
:10369000806100F00200009000984FF09040FEF72B
:1036A00047FB012605A94FF090400595CDE906643A
:1036B0000894FEF763FA40F274100021C2F2000091
:1036C000C5F204010425C0E90014C0E90244C0E9C0
:1036D00004450483C66180F82040C0E90A4480F8AC
:1036E0003040446380F83840FDF7D0FF20B1EFF35D
:1036F000108072B6FEE700BF2020C1F2F0400590B6
:103700000620CDE906047F20CDE9080540F27410BB
:10371000C2F2000005A90A94FDF7FEFD20B1EFF307
:10372000108072B6FEE700BF40F2D81044F20041AC
:10373000C2F20000C4F2000100230C274FF4E13272
:1037400080E80E00C0E90333C0E90573C0E9073320
:103750004362FFF7EDFA28B1EFF3108072B600BFB5
:10376000FEE700BF40F27414C2F200042046FEF7E8
:1037700059F943F67C0540F2D818C0F6000505AEAD
:10378000C2F200084FF090404FF480610122FEF732
:10379000CFFA2046FEF746F920464FF0FF31FEF7FC
:1037A000C5F82046FDF76EFF07462046FEF77AF97A
:1037B000BFB2304629463A46FCF7E8FD3046FCF7F2
:1037C00069FE82B2404631464FF0FF33FFF754FBAB
:1037D00028463946FCF7CEFD0120FEF7BBF9D1E7BC
:1037E0008A68002A02DC0022FDF712B8521E8A60A5
:1037F0004A68C0B2531C4B6010707047F1EE100A5B
:103800004FF6FF71C0F2C03120EA010040F0407075
:10381000E1EE100A70473A7474003A7474003A7416
:10382000740000000000000000000102030406070D
:10383000080900000000010203040000A086010046
:10384000400D0300801A060000350C0040420F00B6
:1038500080841E0000093D0000127A000024F4005C
:1038600000366E010048E801006CDC020000000038
:1038700004000000020000000800000025640A00A7
:10388000A03800080000002018000000C80100084F
:10389000B83800081800002048080000E4010008BB
:1038A0000000000000000000000000000100000017
:0838B0001000000000093D00BA
:040000050800018D61
:00000001FF
